{
  "contractName": "Election",
  "abi": [
    {
      "inputs": [],
      "payable": false,
      "stateMutability": "nonpayable",
      "type": "constructor"
    },
    {
      "constant": true,
      "inputs": [],
      "name": "admin",
      "outputs": [
        {
          "internalType": "address",
          "name": "",
          "type": "address"
        }
      ],
      "payable": false,
      "stateMutability": "view",
      "type": "function"
    },
    {
      "constant": true,
      "inputs": [
        {
          "internalType": "uint256",
          "name": "",
          "type": "uint256"
        }
      ],
      "name": "candidateDetails",
      "outputs": [
        {
          "internalType": "uint256",
          "name": "candidateId",
          "type": "uint256"
        },
        {
          "internalType": "string",
          "name": "header",
          "type": "string"
        },
        {
          "internalType": "string",
          "name": "slogan",
          "type": "string"
        },
        {
          "internalType": "uint256",
          "name": "voteCount",
          "type": "uint256"
        }
      ],
      "payable": false,
      "stateMutability": "view",
      "type": "function"
    },
    {
      "constant": true,
      "inputs": [
        {
          "internalType": "uint256",
          "name": "",
          "type": "uint256"
        }
      ],
      "name": "electionHistories",
      "outputs": [
        {
          "internalType": "string",
          "name": "electionTitle",
          "type": "string"
        },
        {
          "internalType": "string",
          "name": "organizationTitle",
          "type": "string"
        },
        {
          "components": [
            {
              "internalType": "uint256",
              "name": "candidateId",
              "type": "uint256"
            },
            {
              "internalType": "string",
              "name": "header",
              "type": "string"
            },
            {
              "internalType": "string",
              "name": "slogan",
              "type": "string"
            },
            {
              "internalType": "uint256",
              "name": "voteCount",
              "type": "uint256"
            }
          ],
          "internalType": "struct Election.Candidate",
          "name": "winner",
          "type": "tuple"
        }
      ],
      "payable": false,
      "stateMutability": "view",
      "type": "function"
    },
    {
      "constant": true,
      "inputs": [
        {
          "internalType": "address",
          "name": "",
          "type": "address"
        }
      ],
      "name": "voterDetails",
      "outputs": [
        {
          "internalType": "address",
          "name": "voterAddress",
          "type": "address"
        },
        {
          "internalType": "string",
          "name": "name",
          "type": "string"
        },
        {
          "internalType": "string",
          "name": "phone",
          "type": "string"
        },
        {
          "internalType": "bool",
          "name": "isVerified",
          "type": "bool"
        },
        {
          "internalType": "bool",
          "name": "hasVoted",
          "type": "bool"
        },
        {
          "internalType": "bool",
          "name": "isRegistered",
          "type": "bool"
        }
      ],
      "payable": false,
      "stateMutability": "view",
      "type": "function"
    },
    {
      "constant": true,
      "inputs": [
        {
          "internalType": "uint256",
          "name": "",
          "type": "uint256"
        }
      ],
      "name": "voters",
      "outputs": [
        {
          "internalType": "address",
          "name": "",
          "type": "address"
        }
      ],
      "payable": false,
      "stateMutability": "view",
      "type": "function"
    },
    {
      "constant": true,
      "inputs": [],
      "name": "getAdmin",
      "outputs": [
        {
          "internalType": "address",
          "name": "",
          "type": "address"
        }
      ],
      "payable": false,
      "stateMutability": "view",
      "type": "function"
    },
    {
      "constant": false,
      "inputs": [
        {
          "internalType": "string",
          "name": "_header",
          "type": "string"
        },
        {
          "internalType": "string",
          "name": "_slogan",
          "type": "string"
        }
      ],
      "name": "addCandidate",
      "outputs": [],
      "payable": false,
      "stateMutability": "nonpayable",
      "type": "function"
    },
    {
      "constant": false,
      "inputs": [
        {
          "internalType": "string",
          "name": "_adminName",
          "type": "string"
        },
        {
          "internalType": "string",
          "name": "_adminEmail",
          "type": "string"
        },
        {
          "internalType": "string",
          "name": "_adminTitle",
          "type": "string"
        },
        {
          "internalType": "string",
          "name": "_electionTitle",
          "type": "string"
        },
        {
          "internalType": "string",
          "name": "_organizationTitle",
          "type": "string"
        }
      ],
      "name": "setElectionDetails",
      "outputs": [],
      "payable": false,
      "stateMutability": "nonpayable",
      "type": "function"
    },
    {
      "constant": true,
      "inputs": [],
      "name": "getElectionDetails",
      "outputs": [
        {
          "internalType": "string",
          "name": "adminName",
          "type": "string"
        },
        {
          "internalType": "string",
          "name": "adminEmail",
          "type": "string"
        },
        {
          "internalType": "string",
          "name": "adminTitle",
          "type": "string"
        },
        {
          "internalType": "string",
          "name": "electionTitle",
          "type": "string"
        },
        {
          "internalType": "string",
          "name": "organizationTitle",
          "type": "string"
        }
      ],
      "payable": false,
      "stateMutability": "view",
      "type": "function"
    },
    {
      "constant": true,
      "inputs": [],
      "name": "getTotalCandidate",
      "outputs": [
        {
          "internalType": "uint256",
          "name": "",
          "type": "uint256"
        }
      ],
      "payable": false,
      "stateMutability": "view",
      "type": "function"
    },
    {
      "constant": true,
      "inputs": [],
      "name": "getTotalVoter",
      "outputs": [
        {
          "internalType": "uint256",
          "name": "",
          "type": "uint256"
        }
      ],
      "payable": false,
      "stateMutability": "view",
      "type": "function"
    },
    {
      "constant": false,
      "inputs": [
        {
          "internalType": "string",
          "name": "_name",
          "type": "string"
        },
        {
          "internalType": "string",
          "name": "_phone",
          "type": "string"
        }
      ],
      "name": "registerAsVoter",
      "outputs": [],
      "payable": false,
      "stateMutability": "nonpayable",
      "type": "function"
    },
    {
      "constant": false,
      "inputs": [
        {
          "internalType": "bool",
          "name": "_verifiedStatus",
          "type": "bool"
        },
        {
          "internalType": "address",
          "name": "voterAddress",
          "type": "address"
        }
      ],
      "name": "verifyVoter",
      "outputs": [],
      "payable": false,
      "stateMutability": "nonpayable",
      "type": "function"
    },
    {
      "constant": false,
      "inputs": [
        {
          "internalType": "uint256",
          "name": "candidateId",
          "type": "uint256"
        }
      ],
      "name": "vote",
      "outputs": [],
      "payable": false,
      "stateMutability": "nonpayable",
      "type": "function"
    },
    {
      "constant": false,
      "inputs": [],
      "name": "endElection",
      "outputs": [],
      "payable": false,
      "stateMutability": "nonpayable",
      "type": "function"
    },
    {
      "constant": true,
      "inputs": [],
      "name": "getStart",
      "outputs": [
        {
          "internalType": "bool",
          "name": "",
          "type": "bool"
        }
      ],
      "payable": false,
      "stateMutability": "view",
      "type": "function"
    },
    {
      "constant": true,
      "inputs": [],
      "name": "getEnd",
      "outputs": [
        {
          "internalType": "bool",
          "name": "",
          "type": "bool"
        }
      ],
      "payable": false,
      "stateMutability": "view",
      "type": "function"
    },
    {
      "constant": true,
      "inputs": [],
      "name": "getElectionHistory",
      "outputs": [
        {
          "components": [
            {
              "internalType": "string",
              "name": "electionTitle",
              "type": "string"
            },
            {
              "internalType": "string",
              "name": "organizationTitle",
              "type": "string"
            },
            {
              "components": [
                {
                  "internalType": "uint256",
                  "name": "candidateId",
                  "type": "uint256"
                },
                {
                  "internalType": "string",
                  "name": "header",
                  "type": "string"
                },
                {
                  "internalType": "string",
                  "name": "slogan",
                  "type": "string"
                },
                {
                  "internalType": "uint256",
                  "name": "voteCount",
                  "type": "uint256"
                }
              ],
              "internalType": "struct Election.Candidate",
              "name": "winner",
              "type": "tuple"
            }
          ],
          "internalType": "struct Election.ElectionHistory[]",
          "name": "",
          "type": "tuple[]"
        }
      ],
      "payable": false,
      "stateMutability": "view",
      "type": "function"
    },
    {
      "constant": false,
      "inputs": [],
      "name": "resetElection",
      "outputs": [],
      "payable": false,
      "stateMutability": "nonpayable",
      "type": "function"
    }
  ],
  "bytecode": "0x608060405234801561001057600080fd5b50336000806101000a81548173ffffffffffffffffffffffffffffffffffffffff021916908373ffffffffffffffffffffffffffffffffffffffff160217905550600060018190555060006002819055506000600360006101000a81548160ff0219169083151502179055506000600360016101000a81548160ff021916908315150217905550612ec2806100a66000396000f3fe608060405234801561001057600080fd5b50600436106101215760003560e01c806364d198a1116100ad578063da58c7d911610071578063da58c7d9146102ee578063e8f305231461031e578063ed836bc314610328578063f851a4401461034a578063fee0d19a1461036857610121565b806364d198a1146102445780636e9960c3146102625780639f05a36d14610280578063c097108e1461029e578063c5292c67146102d057610121565b8063387cad7a116100f4578063387cad7a14610198578063506b8e0a146101b65780635938750d146101d257806359f78468146102075780636247e5321461021157610121565b80630121b93f146101265780630b93400e14610142578063253e74e21461016057806326541b561461017c575b600080fd5b610140600480360361013b9190810190612633565b610384565b005b61014a6105c5565b6040516101579190612c67565b60405180910390f35b61017a60048036036101759190810190612544565b6105cf565b005b610196600480360361019191908101906124d8565b61090f565b005b6101a0610a12565b6040516101ad9190612ac8565b60405180910390f35b6101d060048036036101cb919081019061249c565b610d21565b005b6101ec60048036036101e79190810190612473565b610dd8565b6040516101fe96959493929190612a59565b60405180910390f35b61020f610f8b565b005b61022b60048036036102269190810190612633565b611024565b60405161023b9493929190612c82565b60405180910390f35b61024c611184565b6040516102599190612c67565b60405180910390f35b61026a61118e565b6040516102779190612a3e565b60405180910390f35b6102886111b7565b6040516102959190612aea565b60405180910390f35b6102b860048036036102b39190810190612633565b6111ce565b6040516102c793929190612b7b565b60405180910390f35b6102d8611497565b6040516102e59190612aea565b60405180910390f35b61030860048036036103039190810190612633565b6114ae565b6040516103159190612a3e565b60405180910390f35b6103266114ea565b005b61033061171a565b604051610341959493929190612b05565b60405180910390f35b610352611a58565b60405161035f9190612a3e565b60405180910390f35b610382600480360361037d91908101906124d8565b611a7d565b005b600b60003373ffffffffffffffffffffffffffffffffffffffff1673ffffffffffffffffffffffffffffffffffffffff16815260200190815260200160002060030160019054906101000a900460ff1615610414576040517f08c379a000000000000000000000000000000000000000000000000000000000815260040161040b90612c07565b60405180910390fd5b600b60003373ffffffffffffffffffffffffffffffffffffffff1673ffffffffffffffffffffffffffffffffffffffff16815260200190815260200160002060030160009054906101000a900460ff166104a3576040517f08c379a000000000000000000000000000000000000000000000000000000000815260040161049a90612be7565b60405180910390fd5b600360009054906101000a900460ff166104f2576040517f08c379a00000000000000000000000000000000000000000000000000000000081526004016104e990612c47565b60405180910390fd5b600360019054906101000a900460ff1615610542576040517f08c379a000000000000000000000000000000000000000000000000000000000815260040161053990612c27565b60405180910390fd5b600160046000838152602001908152602001600020600301600082825401925050819055506001600b60003373ffffffffffffffffffffffffffffffffffffffff1673ffffffffffffffffffffffffffffffffffffffff16815260200190815260200160002060030160016101000a81548160ff02191690831515021790555050565b6000600254905090565b6000809054906101000a900473ffffffffffffffffffffffffffffffffffffffff1673ffffffffffffffffffffffffffffffffffffffff163373ffffffffffffffffffffffffffffffffffffffff161461062857600080fd5b6040518060a00160405280868152602001858152602001848152602001838152602001828152506005600082015181600001908051906020019061066d929190612258565b50602082015181600101908051906020019061068a929190612258565b5060408201518160020190805190602001906106a7929190612258565b5060608201518160030190805190602001906106c4929190612258565b5060808201518160040190805190602001906106e1929190612258565b509050506001600360006101000a81548160ff0219169083151502179055506000600360016101000a81548160ff02191690831515021790555060008090505b600a805490508110156108f1576000600b6000600a848154811061074157fe5b9060005260206000200160009054906101000a900473ffffffffffffffffffffffffffffffffffffffff1673ffffffffffffffffffffffffffffffffffffffff1673ffffffffffffffffffffffffffffffffffffffff16815260200190815260200160002060030160006101000a81548160ff0219169083151502179055506000600b6000600a84815481106107d357fe5b9060005260206000200160009054906101000a900473ffffffffffffffffffffffffffffffffffffffff1673ffffffffffffffffffffffffffffffffffffffff1673ffffffffffffffffffffffffffffffffffffffff16815260200190815260200160002060030160016101000a81548160ff0219169083151502179055506000600b6000600a848154811061086557fe5b9060005260206000200160009054906101000a900473ffffffffffffffffffffffffffffffffffffffff1673ffffffffffffffffffffffffffffffffffffffff1673ffffffffffffffffffffffffffffffffffffffff16815260200190815260200160002060030160026101000a81548160ff0219169083151502179055508080600101915050610721565b506000600281905550600a600061090891906122d8565b5050505050565b6000809054906101000a900473ffffffffffffffffffffffffffffffffffffffff1673ffffffffffffffffffffffffffffffffffffffff163373ffffffffffffffffffffffffffffffffffffffff161461096857600080fd5b6109706122f9565b6040518060800160405280600154815260200184815260200183815260200160008152509050806004600060015481526020019081526020016000206000820151816000015560208201518160010190805190602001906109d2929190612258565b5060408201518160020190805190602001906109ef929190612258565b506060820151816003015590505060018060008282540192505081905550505050565b6060600c805480602002602001604051908101604052809291908181526020016000905b82821015610d185783829060005260206000209060060201604051806060016040529081600082018054600181600116156101000203166002900480601f016020809104026020016040519081016040528092919081815260200182805460018160011615610100020316600290048015610af25780601f10610ac757610100808354040283529160200191610af2565b820191906000526020600020905b815481529060010190602001808311610ad557829003601f168201915b50505050508152602001600182018054600181600116156101000203166002900480601f016020809104026020016040519081016040528092919081815260200182805460018160011615610100020316600290048015610b945780601f10610b6957610100808354040283529160200191610b94565b820191906000526020600020905b815481529060010190602001808311610b7757829003601f168201915b505050505081526020016002820160405180608001604052908160008201548152602001600182018054600181600116156101000203166002900480601f016020809104026020016040519081016040528092919081815260200182805460018160011615610100020316600290048015610c505780601f10610c2557610100808354040283529160200191610c50565b820191906000526020600020905b815481529060010190602001808311610c3357829003601f168201915b50505050508152602001600282018054600181600116156101000203166002900480601f016020809104026020016040519081016040528092919081815260200182805460018160011615610100020316600290048015610cf25780601f10610cc757610100808354040283529160200191610cf2565b820191906000526020600020905b815481529060010190602001808311610cd557829003601f168201915b505050505081526020016003820154815250508152505081526020019060010190610a36565b50505050905090565b6000809054906101000a900473ffffffffffffffffffffffffffffffffffffffff1673ffffffffffffffffffffffffffffffffffffffff163373ffffffffffffffffffffffffffffffffffffffff1614610d7a57600080fd5b81600b60008373ffffffffffffffffffffffffffffffffffffffff1673ffffffffffffffffffffffffffffffffffffffff16815260200190815260200160002060030160006101000a81548160ff0219169083151502179055505050565b600b6020528060005260406000206000915090508060000160009054906101000a900473ffffffffffffffffffffffffffffffffffffffff1690806001018054600181600116156101000203166002900480601f016020809104026020016040519081016040528092919081815260200182805460018160011615610100020316600290048015610eaa5780601f10610e7f57610100808354040283529160200191610eaa565b820191906000526020600020905b815481529060010190602001808311610e8d57829003601f168201915b505050505090806002018054600181600116156101000203166002900480601f016020809104026020016040519081016040528092919081815260200182805460018160011615610100020316600290048015610f485780601f10610f1d57610100808354040283529160200191610f48565b820191906000526020600020905b815481529060010190602001808311610f2b57829003601f168201915b5050505050908060030160009054906101000a900460ff16908060030160019054906101000a900460ff16908060030160029054906101000a900460ff16905086565b6000809054906101000a900473ffffffffffffffffffffffffffffffffffffffff1673ffffffffffffffffffffffffffffffffffffffff163373ffffffffffffffffffffffffffffffffffffffff1614610fe457600080fd5b6001600360016101000a81548160ff0219169083151502179055506000600360006101000a81548160ff021916908315150217905550611022611d03565b565b6004602052806000526040600020600091509050806000015490806001018054600181600116156101000203166002900480601f0160208091040260200160405190810160405280929190818152602001828054600181600116156101000203166002900480156110d65780601f106110ab576101008083540402835291602001916110d6565b820191906000526020600020905b8154815290600101906020018083116110b957829003601f168201915b505050505090806002018054600181600116156101000203166002900480601f0160208091040260200160405190810160405280929190818152602001828054600181600116156101000203166002900480156111745780601f1061114957610100808354040283529160200191611174565b820191906000526020600020905b81548152906001019060200180831161115757829003601f168201915b5050505050908060030154905084565b6000600154905090565b60008060009054906101000a900473ffffffffffffffffffffffffffffffffffffffff16905090565b6000600360019054906101000a900460ff16905090565b600c81815481106111db57fe5b9060005260206000209060060201600091509050806000018054600181600116156101000203166002900480601f0160208091040260200160405190810160405280929190818152602001828054600181600116156101000203166002900480156112875780601f1061125c57610100808354040283529160200191611287565b820191906000526020600020905b81548152906001019060200180831161126a57829003601f168201915b505050505090806001018054600181600116156101000203166002900480601f0160208091040260200160405190810160405280929190818152602001828054600181600116156101000203166002900480156113255780601f106112fa57610100808354040283529160200191611325565b820191906000526020600020905b81548152906001019060200180831161130857829003601f168201915b5050505050908060020160405180608001604052908160008201548152602001600182018054600181600116156101000203166002900480601f0160208091040260200160405190810160405280929190818152602001828054600181600116156101000203166002900480156113dd5780601f106113b2576101008083540402835291602001916113dd565b820191906000526020600020905b8154815290600101906020018083116113c057829003601f168201915b50505050508152602001600282018054600181600116156101000203166002900480601f01602080910402602001604051908101604052809291908181526020018280546001816001161561010002031660029004801561147f5780601f106114545761010080835404028352916020019161147f565b820191906000526020600020905b81548152906001019060200180831161146257829003601f168201915b50505050508152602001600382015481525050905083565b6000600360009054906101000a900460ff16905090565b600a81815481106114bb57fe5b906000526020600020016000915054906101000a900473ffffffffffffffffffffffffffffffffffffffff1681565b6000809054906101000a900473ffffffffffffffffffffffffffffffffffffffff1673ffffffffffffffffffffffffffffffffffffffff163373ffffffffffffffffffffffffffffffffffffffff161461154357600080fd5b60008090505b6001548110156115a6576004600082815260200190815260200160002060008082016000905560018201600061157f9190612321565b60028201600061158f9190612321565b600382016000905550508080600101915050611549565b50600060018190555060006002819055506000600360006101000a81548160ff0219169083151502179055506000600360016101000a81548160ff02191690831515021790555060008090505b600a8054905081101561170957600b6000600a838154811061161157fe5b9060005260206000200160009054906101000a900473ffffffffffffffffffffffffffffffffffffffff1673ffffffffffffffffffffffffffffffffffffffff1673ffffffffffffffffffffffffffffffffffffffff168152602001908152602001600020600080820160006101000a81549073ffffffffffffffffffffffffffffffffffffffff02191690556001820160006116ae9190612321565b6002820160006116be9190612321565b6003820160006101000a81549060ff02191690556003820160016101000a81549060ff02191690556003820160026101000a81549060ff0219169055505080806001019150506115f3565b50600a600061171891906122d8565b565b606080606080606060056000016005600101600560020160056003016005600401848054600181600116156101000203166002900480601f0160208091040260200160405190810160405280929190818152602001828054600181600116156101000203166002900480156117d05780601f106117a5576101008083540402835291602001916117d0565b820191906000526020600020905b8154815290600101906020018083116117b357829003601f168201915b50505050509450838054600181600116156101000203166002900480601f01602080910402602001604051908101604052809291908181526020018280546001816001161561010002031660029004801561186c5780601f106118415761010080835404028352916020019161186c565b820191906000526020600020905b81548152906001019060200180831161184f57829003601f168201915b50505050509350828054600181600116156101000203166002900480601f0160208091040260200160405190810160405280929190818152602001828054600181600116156101000203166002900480156119085780601f106118dd57610100808354040283529160200191611908565b820191906000526020600020905b8154815290600101906020018083116118eb57829003601f168201915b50505050509250818054600181600116156101000203166002900480601f0160208091040260200160405190810160405280929190818152602001828054600181600116156101000203166002900480156119a45780601f10611979576101008083540402835291602001916119a4565b820191906000526020600020905b81548152906001019060200180831161198757829003601f168201915b50505050509150808054600181600116156101000203166002900480601f016020809104026020016040519081016040528092919081815260200182805460018160011615610100020316600290048015611a405780601f10611a1557610100808354040283529160200191611a40565b820191906000526020600020905b815481529060010190602001808311611a2357829003601f168201915b50505050509050945094509450945094509091929394565b6000809054906101000a900473ffffffffffffffffffffffffffffffffffffffff1681565b600b60003373ffffffffffffffffffffffffffffffffffffffff1673ffffffffffffffffffffffffffffffffffffffff16815260200190815260200160002060030160029054906101000a900460ff1615611b0d576040517f08c379a0000000000000000000000000000000000000000000000000000000008152600401611b0490612bc7565b60405180910390fd5b611b15612369565b6040518060c001604052803373ffffffffffffffffffffffffffffffffffffffff16815260200184815260200183815260200160001515815260200160001515815260200160011515815250905080600b60003373ffffffffffffffffffffffffffffffffffffffff1673ffffffffffffffffffffffffffffffffffffffff16815260200190815260200160002060008201518160000160006101000a81548173ffffffffffffffffffffffffffffffffffffffff021916908373ffffffffffffffffffffffffffffffffffffffff1602179055506020820151816001019080519060200190611c06929190612258565b506040820151816002019080519060200190611c23929190612258565b5060608201518160030160006101000a81548160ff02191690831515021790555060808201518160030160016101000a81548160ff02191690831515021790555060a08201518160030160026101000a81548160ff021916908315150217905550905050600a3390806001815401808255809150509060018203906000526020600020016000909192909190916101000a81548173ffffffffffffffffffffffffffffffffffffffff021916908373ffffffffffffffffffffffffffffffffffffffff160217905550506001600260008282540192505081905550505050565b611d0b6122f9565b6004600080815260200190815260200160002060405180608001604052908160008201548152602001600182018054600181600116156101000203166002900480601f016020809104026020016040519081016040528092919081815260200182805460018160011615610100020316600290048015611dcc5780601f10611da157610100808354040283529160200191611dcc565b820191906000526020600020905b815481529060010190602001808311611daf57829003601f168201915b50505050508152602001600282018054600181600116156101000203166002900480601f016020809104026020016040519081016040528092919081815260200182805460018160011615610100020316600290048015611e6e5780601f10611e4357610100808354040283529160200191611e6e565b820191906000526020600020905b815481529060010190602001808311611e5157829003601f168201915b5050505050815260200160038201548152505090506000600190505b60015481101561203c5781606001516004600083815260200190815260200160002060030154111561202f576004600082815260200190815260200160002060405180608001604052908160008201548152602001600182018054600181600116156101000203166002900480601f016020809104026020016040519081016040528092919081815260200182805460018160011615610100020316600290048015611f775780601f10611f4c57610100808354040283529160200191611f77565b820191906000526020600020905b815481529060010190602001808311611f5a57829003601f168201915b50505050508152602001600282018054600181600116156101000203166002900480601f0160208091040260200160405190810160405280929190818152602001828054600181600116156101000203166002900480156120195780601f10611fee57610100808354040283529160200191612019565b820191906000526020600020905b815481529060010190602001808311611ffc57829003601f168201915b5050505050815260200160038201548152505091505b8080600101915050611e8a565b50600c604051806060016040528060056003018054600181600116156101000203166002900480601f0160208091040260200160405190810160405280929190818152602001828054600181600116156101000203166002900480156120e35780601f106120b8576101008083540402835291602001916120e3565b820191906000526020600020905b8154815290600101906020018083116120c657829003601f168201915b5050505050815260200160056004018054600181600116156101000203166002900480601f0160208091040260200160405190810160405280929190818152602001828054600181600116156101000203166002900480156121865780601f1061215b57610100808354040283529160200191612186565b820191906000526020600020905b81548152906001019060200180831161216957829003601f168201915b50505050508152602001838152509080600181540180825580915050906001820390600052602060002090600602016000909192909190915060008201518160000190805190602001906121db929190612258565b5060208201518160010190805190602001906121f8929190612258565b50604082015181600201600082015181600001556020820151816001019080519060200190612228929190612258565b506040820151816002019080519060200190612245929190612258565b5060608201518160030155505050505050565b828054600181600116156101000203166002900490600052602060002090601f016020900481019282601f1061229957805160ff19168380011785556122c7565b828001600101855582156122c7579182015b828111156122c65782518255916020019190600101906122ab565b5b5090506122d491906123bb565b5090565b50805460008255906000526020600020908101906122f691906123bb565b50565b6040518060800160405280600081526020016060815260200160608152602001600081525090565b50805460018160011615610100020316600290046000825580601f106123475750612366565b601f01602090049060005260206000209081019061236591906123bb565b5b50565b6040518060c00160405280600073ffffffffffffffffffffffffffffffffffffffff16815260200160608152602001606081526020016000151581526020016000151581526020016000151581525090565b6123dd91905b808211156123d95760008160009055506001016123c1565b5090565b90565b6000813590506123ef81612e3a565b92915050565b60008135905061240481612e51565b92915050565b600082601f83011261241b57600080fd5b813561242e61242982612d02565b612cd5565b9150808252602083016020830185838301111561244a57600080fd5b612455838284612de7565b50505092915050565b60008135905061246d81612e68565b92915050565b60006020828403121561248557600080fd5b6000612493848285016123e0565b91505092915050565b600080604083850312156124af57600080fd5b60006124bd858286016123f5565b92505060206124ce858286016123e0565b9150509250929050565b600080604083850312156124eb57600080fd5b600083013567ffffffffffffffff81111561250557600080fd5b6125118582860161240a565b925050602083013567ffffffffffffffff81111561252e57600080fd5b61253a8582860161240a565b9150509250929050565b600080600080600060a0868803121561255c57600080fd5b600086013567ffffffffffffffff81111561257657600080fd5b6125828882890161240a565b955050602086013567ffffffffffffffff81111561259f57600080fd5b6125ab8882890161240a565b945050604086013567ffffffffffffffff8111156125c857600080fd5b6125d48882890161240a565b935050606086013567ffffffffffffffff8111156125f157600080fd5b6125fd8882890161240a565b925050608086013567ffffffffffffffff81111561261a57600080fd5b6126268882890161240a565b9150509295509295909350565b60006020828403121561264557600080fd5b60006126538482850161245e565b91505092915050565b600061266883836129c2565b905092915050565b61267981612d9f565b82525050565b600061268a82612d3e565b6126948185612d6c565b9350836020820285016126a685612d2e565b8060005b858110156126e257848403895281516126c3858261265c565b94506126ce83612d5f565b925060208a019950506001810190506126aa565b50829750879550505050505092915050565b6126fd81612db1565b82525050565b600061270e82612d54565b6127188185612d8e565b9350612728818560208601612df6565b61273181612e29565b840191505092915050565b600061274782612d49565b6127518185612d7d565b9350612761818560208601612df6565b61276a81612e29565b840191505092915050565b600061278082612d49565b61278a8185612d8e565b935061279a818560208601612df6565b6127a381612e29565b840191505092915050565b60006127bb601283612d8e565b91507f416c7265616479207265676973746572656400000000000000000000000000006000830152602082019050919050565b60006127fb600c83612d8e565b91507f4e6f7420766572696669656400000000000000000000000000000000000000006000830152602082019050919050565b600061283b600d83612d8e565b91507f416c726561647920766f746564000000000000000000000000000000000000006000830152602082019050919050565b600061287b600e83612d8e565b91507f456c656374696f6e20656e6465640000000000000000000000000000000000006000830152602082019050919050565b60006128bb601483612d8e565b91507f456c656374696f6e206e6f7420737461727465640000000000000000000000006000830152602082019050919050565b60006080830160008301516129066000860182612a20565b506020830151848203602086015261291e828261273c565b91505060408301518482036040860152612938828261273c565b915050606083015161294d6060860182612a20565b508091505092915050565b60006080830160008301516129706000860182612a20565b5060208301518482036020860152612988828261273c565b915050604083015184820360408601526129a2828261273c565b91505060608301516129b76060860182612a20565b508091505092915050565b600060608301600083015184820360008601526129df828261273c565b915050602083015184820360208601526129f9828261273c565b91505060408301518482036040860152612a1382826128ee565b9150508091505092915050565b612a2981612ddd565b82525050565b612a3881612ddd565b82525050565b6000602082019050612a536000830184612670565b92915050565b600060c082019050612a6e6000830189612670565b8181036020830152612a808188612775565b90508181036040830152612a948187612775565b9050612aa360608301866126f4565b612ab060808301856126f4565b612abd60a08301846126f4565b979650505050505050565b60006020820190508181036000830152612ae2818461267f565b905092915050565b6000602082019050612aff60008301846126f4565b92915050565b600060a0820190508181036000830152612b1f8188612703565b90508181036020830152612b338187612703565b90508181036040830152612b478186612703565b90508181036060830152612b5b8185612703565b90508181036080830152612b6f8184612703565b90509695505050505050565b60006060820190508181036000830152612b958186612775565b90508181036020830152612ba98185612775565b90508181036040830152612bbd8184612958565b9050949350505050565b60006020820190508181036000830152612be0816127ae565b9050919050565b60006020820190508181036000830152612c00816127ee565b9050919050565b60006020820190508181036000830152612c208161282e565b9050919050565b60006020820190508181036000830152612c408161286e565b9050919050565b60006020820190508181036000830152612c60816128ae565b9050919050565b6000602082019050612c7c6000830184612a2f565b92915050565b6000608082019050612c976000830187612a2f565b8181036020830152612ca98186612775565b90508181036040830152612cbd8185612775565b9050612ccc6060830184612a2f565b95945050505050565b6000604051905081810181811067ffffffffffffffff82111715612cf857600080fd5b8060405250919050565b600067ffffffffffffffff821115612d1957600080fd5b601f19601f8301169050602081019050919050565b6000819050602082019050919050565b600081519050919050565b600081519050919050565b600081519050919050565b6000602082019050919050565b600082825260208201905092915050565b600082825260208201905092915050565b600082825260208201905092915050565b6000612daa82612dbd565b9050919050565b60008115159050919050565b600073ffffffffffffffffffffffffffffffffffffffff82169050919050565b6000819050919050565b82818337600083830152505050565b60005b83811015612e14578082015181840152602081019050612df9565b83811115612e23576000848401525b50505050565b6000601f19601f8301169050919050565b612e4381612d9f565b8114612e4e57600080fd5b50565b612e5a81612db1565b8114612e6557600080fd5b50565b612e7181612ddd565b8114612e7c57600080fd5b5056fea365627a7a72315820542e46a741f777f5760c701fe0509ba17c23654edaa911e6b5ae4d9ee8a5391a6c6578706572696d656e74616cf564736f6c63430005100040",
  "source": "// SPDX-License-Identifier: MIT\npragma solidity >=0.4.21 <0.9.0;\npragma experimental ABIEncoderV2;\n\ncontract Election {\n    address public admin; // \n    uint256 candidateCount; // \n    uint256 voterCount; // \n    bool start; // \n    bool end; // \n\n    constructor() public {\n        // \n        admin = msg.sender;\n        candidateCount = 0;\n        voterCount = 0;\n        start = false;\n        end = false;\n    }\n\n    function getAdmin() public view returns (address) {\n        // \n        return admin;\n    }\n\n    modifier onlyAdmin() {\n        // \n        require(msg.sender == admin);\n        _;\n    }\n\n    struct Candidate {\n        uint256 candidateId; // ID\n        string header; // \n        string slogan; // \n        uint256 voteCount; // \n    }\n\n    mapping(uint256 => Candidate) public candidateDetails; // \n\n    function addCandidate(string memory _header, string memory _slogan) public onlyAdmin {\n        Candidate memory newCandidate = Candidate({\n            candidateId: candidateCount,\n            header: _header,\n            slogan: _slogan,\n            voteCount: 0\n        });\n        candidateDetails[candidateCount] = newCandidate;\n        candidateCount += 1;\n    }\n\n    struct ElectionDetails {\n        string adminName; // \n        string adminEmail; // \n        string adminTitle; // \n        string electionTitle; // \n        string organizationTitle; // \n    }\n\n    ElectionDetails electionDetails;\n\n    function setElectionDetails(\n        string memory _adminName,\n        string memory _adminEmail,\n        string memory _adminTitle,\n        string memory _electionTitle,\n        string memory _organizationTitle\n    ) public onlyAdmin {\n        electionDetails = ElectionDetails(\n            _adminName,\n            _adminEmail,\n            _adminTitle,\n            _electionTitle,\n            _organizationTitle\n        );\n        start = true;\n        end = false;\n\n        // Reset voter status for the new election\n        for (uint i = 0; i < voters.length; i++) {\n            voterDetails[voters[i]].isVerified = false;\n            voterDetails[voters[i]].hasVoted = false;\n            voterDetails[voters[i]].isRegistered = false;\n        }\n        voterCount = 0;\n        delete voters;\n    }\n\n    function getElectionDetails() public view returns (\n        string memory adminName,\n        string memory adminEmail,\n        string memory adminTitle,\n        string memory electionTitle,\n        string memory organizationTitle\n    ) {\n        return (\n            electionDetails.adminName,\n            electionDetails.adminEmail,\n            electionDetails.adminTitle,\n            electionDetails.electionTitle,\n            electionDetails.organizationTitle\n        );\n    }\n\n    function getTotalCandidate() public view returns (uint256) {\n        return candidateCount;\n    }\n\n    function getTotalVoter() public view returns (uint256) {\n        return voterCount;\n    }\n\n    struct Voter {\n        address voterAddress; // \n        string name; // \n        string phone; // \n        bool isVerified; // \n        bool hasVoted; // \n        bool isRegistered; // \n    }\n\n    address[] public voters; // \n    mapping(address => Voter) public voterDetails; // \n\n    function registerAsVoter(string memory _name, string memory _phone) public {\n        require(!voterDetails[msg.sender].isRegistered, \"Already registered\");\n\n        Voter memory newVoter = Voter({\n            voterAddress: msg.sender,\n            name: _name,\n            phone: _phone,\n            hasVoted: false,\n            isVerified: false, // Require admin verification\n            isRegistered: true\n        });\n        voterDetails[msg.sender] = newVoter;\n        voters.push(msg.sender);\n        voterCount += 1;\n    }\n\n    function verifyVoter(bool _verifiedStatus, address voterAddress) public onlyAdmin {\n        voterDetails[voterAddress].isVerified = _verifiedStatus;\n    }\n\n    function vote(uint256 candidateId) public {\n        require(!voterDetails[msg.sender].hasVoted, \"Already voted\");\n        require(voterDetails[msg.sender].isVerified, \"Not verified\");\n        require(start, \"Election not started\");\n        require(!end, \"Election ended\");\n\n        candidateDetails[candidateId].voteCount += 1;\n        voterDetails[msg.sender].hasVoted = true;\n    }\n\n    function endElection() public onlyAdmin {\n        end = true;\n        start = false;\n        // \n        addElectionHistory();\n    }\n\n    function getStart() public view returns (bool) {\n        return start;\n    }\n\n    function getEnd() public view returns (bool) {\n        return end;\n    }\n\n    struct ElectionHistory {\n        string electionTitle;\n        string organizationTitle;\n        Candidate winner;\n    }\n\n    ElectionHistory[] public electionHistories;\n\n    function addElectionHistory() internal {\n        Candidate memory winner = candidateDetails[0];\n        for (uint256 i = 1; i < candidateCount; i++) {\n            if (candidateDetails[i].voteCount > winner.voteCount) {\n                winner = candidateDetails[i];\n            }\n        }\n        electionHistories.push(ElectionHistory({\n            electionTitle: electionDetails.electionTitle,\n            organizationTitle: electionDetails.organizationTitle,\n            winner: winner\n        }));\n    }\n\n    function getElectionHistory() public view returns (ElectionHistory[] memory) {\n        return electionHistories;\n    }\n\n    function resetElection() public onlyAdmin {\n        for (uint i = 0; i < candidateCount; i++) {\n            delete candidateDetails[i];\n        }\n        candidateCount = 0;\n        voterCount = 0;\n        start = false;\n        end = false;\n\n        // Clear voter details\n        for (uint i = 0; i < voters.length; i++) {\n            delete voterDetails[voters[i]];\n        }\n        delete voters;\n    }\n}\n",
  "sourcePath": "E:\\eth_voting\\Test\\contracts\\Election.sol",
  "compiler": {
    "name": "solc",
    "version": "0.5.16+commit.9c3226ce.Emscripten.clang"
  },
  "schemaVersion": "3.4.16",
  "updatedAt": "2024-06-17T09:19:32.100Z",
  "networkType": "ethereum",
  "devdoc": {
    "methods": {}
  },
  "userdoc": {
    "methods": {}
  }
}