{
  "contractName": "Election",
  "abi": [
    {
      "inputs": [],
      "payable": false,
      "stateMutability": "nonpayable",
      "type": "constructor"
    },
    {
      "constant": true,
      "inputs": [],
      "name": "admin",
      "outputs": [
        {
          "internalType": "address",
          "name": "",
          "type": "address"
        }
      ],
      "payable": false,
      "stateMutability": "view",
      "type": "function"
    },
    {
      "constant": true,
      "inputs": [
        {
          "internalType": "uint256",
          "name": "",
          "type": "uint256"
        }
      ],
      "name": "candidateDetails",
      "outputs": [
        {
          "internalType": "uint256",
          "name": "candidateId",
          "type": "uint256"
        },
        {
          "internalType": "string",
          "name": "header",
          "type": "string"
        },
        {
          "internalType": "string",
          "name": "slogan",
          "type": "string"
        },
        {
          "internalType": "uint256",
          "name": "voteCount",
          "type": "uint256"
        }
      ],
      "payable": false,
      "stateMutability": "view",
      "type": "function"
    },
    {
      "constant": true,
      "inputs": [
        {
          "internalType": "uint256",
          "name": "",
          "type": "uint256"
        }
      ],
      "name": "electionHistories",
      "outputs": [
        {
          "internalType": "string",
          "name": "electionTitle",
          "type": "string"
        },
        {
          "internalType": "string",
          "name": "organizationTitle",
          "type": "string"
        },
        {
          "components": [
            {
              "internalType": "uint256",
              "name": "candidateId",
              "type": "uint256"
            },
            {
              "internalType": "string",
              "name": "header",
              "type": "string"
            },
            {
              "internalType": "string",
              "name": "slogan",
              "type": "string"
            },
            {
              "internalType": "uint256",
              "name": "voteCount",
              "type": "uint256"
            }
          ],
          "internalType": "struct Election.Candidate",
          "name": "winner",
          "type": "tuple"
        }
      ],
      "payable": false,
      "stateMutability": "view",
      "type": "function"
    },
    {
      "constant": true,
      "inputs": [
        {
          "internalType": "address",
          "name": "",
          "type": "address"
        }
      ],
      "name": "voterDetails",
      "outputs": [
        {
          "internalType": "address",
          "name": "voterAddress",
          "type": "address"
        },
        {
          "internalType": "string",
          "name": "name",
          "type": "string"
        },
        {
          "internalType": "string",
          "name": "phone",
          "type": "string"
        },
        {
          "internalType": "bool",
          "name": "isVerified",
          "type": "bool"
        },
        {
          "internalType": "bool",
          "name": "hasVoted",
          "type": "bool"
        },
        {
          "internalType": "bool",
          "name": "isRegistered",
          "type": "bool"
        }
      ],
      "payable": false,
      "stateMutability": "view",
      "type": "function"
    },
    {
      "constant": true,
      "inputs": [
        {
          "internalType": "uint256",
          "name": "",
          "type": "uint256"
        }
      ],
      "name": "voters",
      "outputs": [
        {
          "internalType": "address",
          "name": "",
          "type": "address"
        }
      ],
      "payable": false,
      "stateMutability": "view",
      "type": "function"
    },
    {
      "constant": true,
      "inputs": [],
      "name": "getAdmin",
      "outputs": [
        {
          "internalType": "address",
          "name": "",
          "type": "address"
        }
      ],
      "payable": false,
      "stateMutability": "view",
      "type": "function"
    },
    {
      "constant": false,
      "inputs": [
        {
          "internalType": "string",
          "name": "_header",
          "type": "string"
        },
        {
          "internalType": "string",
          "name": "_slogan",
          "type": "string"
        }
      ],
      "name": "addCandidate",
      "outputs": [],
      "payable": false,
      "stateMutability": "nonpayable",
      "type": "function"
    },
    {
      "constant": false,
      "inputs": [
        {
          "internalType": "string",
          "name": "_adminName",
          "type": "string"
        },
        {
          "internalType": "string",
          "name": "_adminEmail",
          "type": "string"
        },
        {
          "internalType": "string",
          "name": "_adminTitle",
          "type": "string"
        },
        {
          "internalType": "string",
          "name": "_electionTitle",
          "type": "string"
        },
        {
          "internalType": "string",
          "name": "_organizationTitle",
          "type": "string"
        }
      ],
      "name": "setElectionDetails",
      "outputs": [],
      "payable": false,
      "stateMutability": "nonpayable",
      "type": "function"
    },
    {
      "constant": true,
      "inputs": [],
      "name": "getElectionDetails",
      "outputs": [
        {
          "internalType": "string",
          "name": "adminName",
          "type": "string"
        },
        {
          "internalType": "string",
          "name": "adminEmail",
          "type": "string"
        },
        {
          "internalType": "string",
          "name": "adminTitle",
          "type": "string"
        },
        {
          "internalType": "string",
          "name": "electionTitle",
          "type": "string"
        },
        {
          "internalType": "string",
          "name": "organizationTitle",
          "type": "string"
        }
      ],
      "payable": false,
      "stateMutability": "view",
      "type": "function"
    },
    {
      "constant": true,
      "inputs": [],
      "name": "getTotalCandidate",
      "outputs": [
        {
          "internalType": "uint256",
          "name": "",
          "type": "uint256"
        }
      ],
      "payable": false,
      "stateMutability": "view",
      "type": "function"
    },
    {
      "constant": true,
      "inputs": [],
      "name": "getTotalVoter",
      "outputs": [
        {
          "internalType": "uint256",
          "name": "",
          "type": "uint256"
        }
      ],
      "payable": false,
      "stateMutability": "view",
      "type": "function"
    },
    {
      "constant": false,
      "inputs": [
        {
          "internalType": "string",
          "name": "_name",
          "type": "string"
        },
        {
          "internalType": "string",
          "name": "_phone",
          "type": "string"
        }
      ],
      "name": "registerAsVoter",
      "outputs": [],
      "payable": false,
      "stateMutability": "nonpayable",
      "type": "function"
    },
    {
      "constant": false,
      "inputs": [
        {
          "internalType": "bool",
          "name": "_verifedStatus",
          "type": "bool"
        },
        {
          "internalType": "address",
          "name": "voterAddress",
          "type": "address"
        }
      ],
      "name": "verifyVoter",
      "outputs": [],
      "payable": false,
      "stateMutability": "nonpayable",
      "type": "function"
    },
    {
      "constant": false,
      "inputs": [
        {
          "internalType": "uint256",
          "name": "candidateId",
          "type": "uint256"
        }
      ],
      "name": "vote",
      "outputs": [],
      "payable": false,
      "stateMutability": "nonpayable",
      "type": "function"
    },
    {
      "constant": false,
      "inputs": [],
      "name": "endElection",
      "outputs": [],
      "payable": false,
      "stateMutability": "nonpayable",
      "type": "function"
    },
    {
      "constant": true,
      "inputs": [],
      "name": "getStart",
      "outputs": [
        {
          "internalType": "bool",
          "name": "",
          "type": "bool"
        }
      ],
      "payable": false,
      "stateMutability": "view",
      "type": "function"
    },
    {
      "constant": true,
      "inputs": [],
      "name": "getEnd",
      "outputs": [
        {
          "internalType": "bool",
          "name": "",
          "type": "bool"
        }
      ],
      "payable": false,
      "stateMutability": "view",
      "type": "function"
    },
    {
      "constant": true,
      "inputs": [],
      "name": "getElectionHistory",
      "outputs": [
        {
          "components": [
            {
              "internalType": "string",
              "name": "electionTitle",
              "type": "string"
            },
            {
              "internalType": "string",
              "name": "organizationTitle",
              "type": "string"
            },
            {
              "components": [
                {
                  "internalType": "uint256",
                  "name": "candidateId",
                  "type": "uint256"
                },
                {
                  "internalType": "string",
                  "name": "header",
                  "type": "string"
                },
                {
                  "internalType": "string",
                  "name": "slogan",
                  "type": "string"
                },
                {
                  "internalType": "uint256",
                  "name": "voteCount",
                  "type": "uint256"
                }
              ],
              "internalType": "struct Election.Candidate",
              "name": "winner",
              "type": "tuple"
            }
          ],
          "internalType": "struct Election.ElectionHistory[]",
          "name": "",
          "type": "tuple[]"
        }
      ],
      "payable": false,
      "stateMutability": "view",
      "type": "function"
    },
    {
      "constant": false,
      "inputs": [],
      "name": "resetElection",
      "outputs": [],
      "payable": false,
      "stateMutability": "nonpayable",
      "type": "function"
    }
  ],
  "bytecode": "0x608060405234801561001057600080fd5b50336000806101000a81548173ffffffffffffffffffffffffffffffffffffffff021916908373ffffffffffffffffffffffffffffffffffffffff160217905550600060018190555060006002819055506000600360006101000a81548160ff0219169083151502179055506000600360016101000a81548160ff021916908315150217905550612a99806100a66000396000f3fe608060405234801561001057600080fd5b50600436106101215760003560e01c806364d198a1116100ad578063da58c7d911610071578063da58c7d9146102ee578063e8f305231461031e578063ed836bc314610328578063f851a4401461034a578063fee0d19a1461036857610121565b806364d198a1146102445780636e9960c3146102625780639f05a36d14610280578063c097108e1461029e578063c5292c67146102d057610121565b8063387cad7a116100f4578063387cad7a14610198578063506b8e0a146101b65780635938750d146101d257806359f78468146102075780636247e5321461021157610121565b80630121b93f146101265780630b93400e14610142578063253e74e21461016057806326541b561461017c575b600080fd5b610140600480360361013b919081019061226a565b610384565b005b61014a6105c5565b604051610157919061283e565b60405180910390f35b61017a6004803603610175919081019061217b565b6105cf565b005b6101966004803603610191919081019061210f565b610722565b005b6101a0610825565b6040516101ad91906126bf565b60405180910390f35b6101d060048036036101cb91908101906120d3565b610b34565b005b6101ec60048036036101e791908101906120aa565b610beb565b6040516101fe96959493929190612650565b60405180910390f35b61020f610d9e565b005b61022b6004803603610226919081019061226a565b610e37565b60405161023b9493929190612859565b60405180910390f35b61024c610f97565b604051610259919061283e565b60405180910390f35b61026a610fa1565b6040516102779190612635565b60405180910390f35b610288610fca565b60405161029591906126e1565b60405180910390f35b6102b860048036036102b3919081019061226a565b610fe1565b6040516102c793929190612772565b60405180910390f35b6102d86112aa565b6040516102e591906126e1565b60405180910390f35b6103086004803603610303919081019061226a565b6112c1565b6040516103159190612635565b60405180910390f35b6103266112fd565b005b610330611402565b6040516103419594939291906126fc565b60405180910390f35b610352611740565b60405161035f9190612635565b60405180910390f35b610382600480360361037d919081019061210f565b611765565b005b600b60003373ffffffffffffffffffffffffffffffffffffffff1673ffffffffffffffffffffffffffffffffffffffff16815260200190815260200160002060030160019054906101000a900460ff1615610414576040517f08c379a000000000000000000000000000000000000000000000000000000000815260040161040b906127de565b60405180910390fd5b600b60003373ffffffffffffffffffffffffffffffffffffffff1673ffffffffffffffffffffffffffffffffffffffff16815260200190815260200160002060030160009054906101000a900460ff166104a3576040517f08c379a000000000000000000000000000000000000000000000000000000000815260040161049a906127be565b60405180910390fd5b600360009054906101000a900460ff166104f2576040517f08c379a00000000000000000000000000000000000000000000000000000000081526004016104e99061281e565b60405180910390fd5b600360019054906101000a900460ff1615610542576040517f08c379a0000000000000000000000000000000000000000000000000000000008152600401610539906127fe565b60405180910390fd5b600160046000838152602001908152602001600020600301600082825401925050819055506001600b60003373ffffffffffffffffffffffffffffffffffffffff1673ffffffffffffffffffffffffffffffffffffffff16815260200190815260200160002060030160016101000a81548160ff02191690831515021790555050565b6000600254905090565b6000809054906101000a900473ffffffffffffffffffffffffffffffffffffffff1673ffffffffffffffffffffffffffffffffffffffff163373ffffffffffffffffffffffffffffffffffffffff161461062857600080fd5b6040518060a00160405280868152602001858152602001848152602001838152602001828152506005600082015181600001908051906020019061066d929190611eb0565b50602082015181600101908051906020019061068a929190611eb0565b5060408201518160020190805190602001906106a7929190611eb0565b5060608201518160030190805190602001906106c4929190611eb0565b5060808201518160040190805190602001906106e1929190611eb0565b509050506001600360006101000a81548160ff0219169083151502179055506000600360016101000a81548160ff0219169083151502179055505050505050565b6000809054906101000a900473ffffffffffffffffffffffffffffffffffffffff1673ffffffffffffffffffffffffffffffffffffffff163373ffffffffffffffffffffffffffffffffffffffff161461077b57600080fd5b610783611f30565b6040518060800160405280600154815260200184815260200183815260200160008152509050806004600060015481526020019081526020016000206000820151816000015560208201518160010190805190602001906107e5929190611eb0565b506040820151816002019080519060200190610802929190611eb0565b506060820151816003015590505060018060008282540192505081905550505050565b6060600c805480602002602001604051908101604052809291908181526020016000905b82821015610b2b5783829060005260206000209060060201604051806060016040529081600082018054600181600116156101000203166002900480601f0160208091040260200160405190810160405280929190818152602001828054600181600116156101000203166002900480156109055780601f106108da57610100808354040283529160200191610905565b820191906000526020600020905b8154815290600101906020018083116108e857829003601f168201915b50505050508152602001600182018054600181600116156101000203166002900480601f0160208091040260200160405190810160405280929190818152602001828054600181600116156101000203166002900480156109a75780601f1061097c576101008083540402835291602001916109a7565b820191906000526020600020905b81548152906001019060200180831161098a57829003601f168201915b505050505081526020016002820160405180608001604052908160008201548152602001600182018054600181600116156101000203166002900480601f016020809104026020016040519081016040528092919081815260200182805460018160011615610100020316600290048015610a635780601f10610a3857610100808354040283529160200191610a63565b820191906000526020600020905b815481529060010190602001808311610a4657829003601f168201915b50505050508152602001600282018054600181600116156101000203166002900480601f016020809104026020016040519081016040528092919081815260200182805460018160011615610100020316600290048015610b055780601f10610ada57610100808354040283529160200191610b05565b820191906000526020600020905b815481529060010190602001808311610ae857829003601f168201915b505050505081526020016003820154815250508152505081526020019060010190610849565b50505050905090565b6000809054906101000a900473ffffffffffffffffffffffffffffffffffffffff1673ffffffffffffffffffffffffffffffffffffffff163373ffffffffffffffffffffffffffffffffffffffff1614610b8d57600080fd5b81600b60008373ffffffffffffffffffffffffffffffffffffffff1673ffffffffffffffffffffffffffffffffffffffff16815260200190815260200160002060030160006101000a81548160ff0219169083151502179055505050565b600b6020528060005260406000206000915090508060000160009054906101000a900473ffffffffffffffffffffffffffffffffffffffff1690806001018054600181600116156101000203166002900480601f016020809104026020016040519081016040528092919081815260200182805460018160011615610100020316600290048015610cbd5780601f10610c9257610100808354040283529160200191610cbd565b820191906000526020600020905b815481529060010190602001808311610ca057829003601f168201915b505050505090806002018054600181600116156101000203166002900480601f016020809104026020016040519081016040528092919081815260200182805460018160011615610100020316600290048015610d5b5780601f10610d3057610100808354040283529160200191610d5b565b820191906000526020600020905b815481529060010190602001808311610d3e57829003601f168201915b5050505050908060030160009054906101000a900460ff16908060030160019054906101000a900460ff16908060030160029054906101000a900460ff16905086565b6000809054906101000a900473ffffffffffffffffffffffffffffffffffffffff1673ffffffffffffffffffffffffffffffffffffffff163373ffffffffffffffffffffffffffffffffffffffff1614610df757600080fd5b6001600360016101000a81548160ff0219169083151502179055506000600360006101000a81548160ff021916908315150217905550610e3561195b565b565b6004602052806000526040600020600091509050806000015490806001018054600181600116156101000203166002900480601f016020809104026020016040519081016040528092919081815260200182805460018160011615610100020316600290048015610ee95780601f10610ebe57610100808354040283529160200191610ee9565b820191906000526020600020905b815481529060010190602001808311610ecc57829003601f168201915b505050505090806002018054600181600116156101000203166002900480601f016020809104026020016040519081016040528092919081815260200182805460018160011615610100020316600290048015610f875780601f10610f5c57610100808354040283529160200191610f87565b820191906000526020600020905b815481529060010190602001808311610f6a57829003601f168201915b5050505050908060030154905084565b6000600154905090565b60008060009054906101000a900473ffffffffffffffffffffffffffffffffffffffff16905090565b6000600360019054906101000a900460ff16905090565b600c8181548110610fee57fe5b9060005260206000209060060201600091509050806000018054600181600116156101000203166002900480601f01602080910402602001604051908101604052809291908181526020018280546001816001161561010002031660029004801561109a5780601f1061106f5761010080835404028352916020019161109a565b820191906000526020600020905b81548152906001019060200180831161107d57829003601f168201915b505050505090806001018054600181600116156101000203166002900480601f0160208091040260200160405190810160405280929190818152602001828054600181600116156101000203166002900480156111385780601f1061110d57610100808354040283529160200191611138565b820191906000526020600020905b81548152906001019060200180831161111b57829003601f168201915b5050505050908060020160405180608001604052908160008201548152602001600182018054600181600116156101000203166002900480601f0160208091040260200160405190810160405280929190818152602001828054600181600116156101000203166002900480156111f05780601f106111c5576101008083540402835291602001916111f0565b820191906000526020600020905b8154815290600101906020018083116111d357829003601f168201915b50505050508152602001600282018054600181600116156101000203166002900480601f0160208091040260200160405190810160405280929190818152602001828054600181600116156101000203166002900480156112925780601f1061126757610100808354040283529160200191611292565b820191906000526020600020905b81548152906001019060200180831161127557829003601f168201915b50505050508152602001600382015481525050905083565b6000600360009054906101000a900460ff16905090565b600a81815481106112ce57fe5b906000526020600020016000915054906101000a900473ffffffffffffffffffffffffffffffffffffffff1681565b6000809054906101000a900473ffffffffffffffffffffffffffffffffffffffff1673ffffffffffffffffffffffffffffffffffffffff163373ffffffffffffffffffffffffffffffffffffffff161461135657600080fd5b60008090505b6001548110156113b957600460008281526020019081526020016000206000808201600090556001820160006113929190611f58565b6002820160006113a29190611f58565b60038201600090555050808060010191505061135c565b50600060018190555060006002819055506000600360006101000a81548160ff0219169083151502179055506000600360016101000a81548160ff021916908315150217905550565b606080606080606060056000016005600101600560020160056003016005600401848054600181600116156101000203166002900480601f0160208091040260200160405190810160405280929190818152602001828054600181600116156101000203166002900480156114b85780601f1061148d576101008083540402835291602001916114b8565b820191906000526020600020905b81548152906001019060200180831161149b57829003601f168201915b50505050509450838054600181600116156101000203166002900480601f0160208091040260200160405190810160405280929190818152602001828054600181600116156101000203166002900480156115545780601f1061152957610100808354040283529160200191611554565b820191906000526020600020905b81548152906001019060200180831161153757829003601f168201915b50505050509350828054600181600116156101000203166002900480601f0160208091040260200160405190810160405280929190818152602001828054600181600116156101000203166002900480156115f05780601f106115c5576101008083540402835291602001916115f0565b820191906000526020600020905b8154815290600101906020018083116115d357829003601f168201915b50505050509250818054600181600116156101000203166002900480601f01602080910402602001604051908101604052809291908181526020018280546001816001161561010002031660029004801561168c5780601f106116615761010080835404028352916020019161168c565b820191906000526020600020905b81548152906001019060200180831161166f57829003601f168201915b50505050509150808054600181600116156101000203166002900480601f0160208091040260200160405190810160405280929190818152602001828054600181600116156101000203166002900480156117285780601f106116fd57610100808354040283529160200191611728565b820191906000526020600020905b81548152906001019060200180831161170b57829003601f168201915b50505050509050945094509450945094509091929394565b6000809054906101000a900473ffffffffffffffffffffffffffffffffffffffff1681565b61176d611fa0565b6040518060c001604052803373ffffffffffffffffffffffffffffffffffffffff16815260200184815260200183815260200160001515815260200160001515815260200160011515815250905080600b60003373ffffffffffffffffffffffffffffffffffffffff1673ffffffffffffffffffffffffffffffffffffffff16815260200190815260200160002060008201518160000160006101000a81548173ffffffffffffffffffffffffffffffffffffffff021916908373ffffffffffffffffffffffffffffffffffffffff160217905550602082015181600101908051906020019061185e929190611eb0565b50604082015181600201908051906020019061187b929190611eb0565b5060608201518160030160006101000a81548160ff02191690831515021790555060808201518160030160016101000a81548160ff02191690831515021790555060a08201518160030160026101000a81548160ff021916908315150217905550905050600a3390806001815401808255809150509060018203906000526020600020016000909192909190916101000a81548173ffffffffffffffffffffffffffffffffffffffff021916908373ffffffffffffffffffffffffffffffffffffffff160217905550506001600260008282540192505081905550505050565b611963611f30565b6004600080815260200190815260200160002060405180608001604052908160008201548152602001600182018054600181600116156101000203166002900480601f016020809104026020016040519081016040528092919081815260200182805460018160011615610100020316600290048015611a245780601f106119f957610100808354040283529160200191611a24565b820191906000526020600020905b815481529060010190602001808311611a0757829003601f168201915b50505050508152602001600282018054600181600116156101000203166002900480601f016020809104026020016040519081016040528092919081815260200182805460018160011615610100020316600290048015611ac65780601f10611a9b57610100808354040283529160200191611ac6565b820191906000526020600020905b815481529060010190602001808311611aa957829003601f168201915b5050505050815260200160038201548152505090506000600190505b600154811015611c9457816060015160046000838152602001908152602001600020600301541115611c87576004600082815260200190815260200160002060405180608001604052908160008201548152602001600182018054600181600116156101000203166002900480601f016020809104026020016040519081016040528092919081815260200182805460018160011615610100020316600290048015611bcf5780601f10611ba457610100808354040283529160200191611bcf565b820191906000526020600020905b815481529060010190602001808311611bb257829003601f168201915b50505050508152602001600282018054600181600116156101000203166002900480601f016020809104026020016040519081016040528092919081815260200182805460018160011615610100020316600290048015611c715780601f10611c4657610100808354040283529160200191611c71565b820191906000526020600020905b815481529060010190602001808311611c5457829003601f168201915b5050505050815260200160038201548152505091505b8080600101915050611ae2565b50600c604051806060016040528060056003018054600181600116156101000203166002900480601f016020809104026020016040519081016040528092919081815260200182805460018160011615610100020316600290048015611d3b5780601f10611d1057610100808354040283529160200191611d3b565b820191906000526020600020905b815481529060010190602001808311611d1e57829003601f168201915b5050505050815260200160056004018054600181600116156101000203166002900480601f016020809104026020016040519081016040528092919081815260200182805460018160011615610100020316600290048015611dde5780601f10611db357610100808354040283529160200191611dde565b820191906000526020600020905b815481529060010190602001808311611dc157829003601f168201915b5050505050815260200183815250908060018154018082558091505090600182039060005260206000209060060201600090919290919091506000820151816000019080519060200190611e33929190611eb0565b506020820151816001019080519060200190611e50929190611eb0565b50604082015181600201600082015181600001556020820151816001019080519060200190611e80929190611eb0565b506040820151816002019080519060200190611e9d929190611eb0565b5060608201518160030155505050505050565b828054600181600116156101000203166002900490600052602060002090601f016020900481019282601f10611ef157805160ff1916838001178555611f1f565b82800160010185558215611f1f579182015b82811115611f1e578251825591602001919060010190611f03565b5b509050611f2c9190611ff2565b5090565b6040518060800160405280600081526020016060815260200160608152602001600081525090565b50805460018160011615610100020316600290046000825580601f10611f7e5750611f9d565b601f016020900490600052602060002090810190611f9c9190611ff2565b5b50565b6040518060c00160405280600073ffffffffffffffffffffffffffffffffffffffff16815260200160608152602001606081526020016000151581526020016000151581526020016000151581525090565b61201491905b80821115612010576000816000905550600101611ff8565b5090565b90565b60008135905061202681612a11565b92915050565b60008135905061203b81612a28565b92915050565b600082601f83011261205257600080fd5b8135612065612060826128d9565b6128ac565b9150808252602083016020830185838301111561208157600080fd5b61208c8382846129be565b50505092915050565b6000813590506120a481612a3f565b92915050565b6000602082840312156120bc57600080fd5b60006120ca84828501612017565b91505092915050565b600080604083850312156120e657600080fd5b60006120f48582860161202c565b925050602061210585828601612017565b9150509250929050565b6000806040838503121561212257600080fd5b600083013567ffffffffffffffff81111561213c57600080fd5b61214885828601612041565b925050602083013567ffffffffffffffff81111561216557600080fd5b61217185828601612041565b9150509250929050565b600080600080600060a0868803121561219357600080fd5b600086013567ffffffffffffffff8111156121ad57600080fd5b6121b988828901612041565b955050602086013567ffffffffffffffff8111156121d657600080fd5b6121e288828901612041565b945050604086013567ffffffffffffffff8111156121ff57600080fd5b61220b88828901612041565b935050606086013567ffffffffffffffff81111561222857600080fd5b61223488828901612041565b925050608086013567ffffffffffffffff81111561225157600080fd5b61225d88828901612041565b9150509295509295909350565b60006020828403121561227c57600080fd5b600061228a84828501612095565b91505092915050565b600061229f83836125b9565b905092915050565b6122b081612976565b82525050565b60006122c182612915565b6122cb8185612943565b9350836020820285016122dd85612905565b8060005b8581101561231957848403895281516122fa8582612293565b945061230583612936565b925060208a019950506001810190506122e1565b50829750879550505050505092915050565b61233481612988565b82525050565b60006123458261292b565b61234f8185612965565b935061235f8185602086016129cd565b61236881612a00565b840191505092915050565b600061237e82612920565b6123888185612954565b93506123988185602086016129cd565b6123a181612a00565b840191505092915050565b60006123b782612920565b6123c18185612965565b93506123d18185602086016129cd565b6123da81612a00565b840191505092915050565b60006123f2600c83612965565b91507f4e6f7420766572696669656400000000000000000000000000000000000000006000830152602082019050919050565b6000612432600d83612965565b91507f416c726561647920766f746564000000000000000000000000000000000000006000830152602082019050919050565b6000612472600e83612965565b91507f456c656374696f6e20656e6465640000000000000000000000000000000000006000830152602082019050919050565b60006124b2601483612965565b91507f456c656374696f6e206e6f7420737461727465640000000000000000000000006000830152602082019050919050565b60006080830160008301516124fd6000860182612617565b50602083015184820360208601526125158282612373565b9150506040830151848203604086015261252f8282612373565b91505060608301516125446060860182612617565b508091505092915050565b60006080830160008301516125676000860182612617565b506020830151848203602086015261257f8282612373565b915050604083015184820360408601526125998282612373565b91505060608301516125ae6060860182612617565b508091505092915050565b600060608301600083015184820360008601526125d68282612373565b915050602083015184820360208601526125f08282612373565b9150506040830151848203604086015261260a82826124e5565b9150508091505092915050565b612620816129b4565b82525050565b61262f816129b4565b82525050565b600060208201905061264a60008301846122a7565b92915050565b600060c08201905061266560008301896122a7565b818103602083015261267781886123ac565b9050818103604083015261268b81876123ac565b905061269a606083018661232b565b6126a7608083018561232b565b6126b460a083018461232b565b979650505050505050565b600060208201905081810360008301526126d981846122b6565b905092915050565b60006020820190506126f6600083018461232b565b92915050565b600060a0820190508181036000830152612716818861233a565b9050818103602083015261272a818761233a565b9050818103604083015261273e818661233a565b90508181036060830152612752818561233a565b90508181036080830152612766818461233a565b90509695505050505050565b6000606082019050818103600083015261278c81866123ac565b905081810360208301526127a081856123ac565b905081810360408301526127b4818461254f565b9050949350505050565b600060208201905081810360008301526127d7816123e5565b9050919050565b600060208201905081810360008301526127f781612425565b9050919050565b6000602082019050818103600083015261281781612465565b9050919050565b60006020820190508181036000830152612837816124a5565b9050919050565b60006020820190506128536000830184612626565b92915050565b600060808201905061286e6000830187612626565b818103602083015261288081866123ac565b9050818103604083015261289481856123ac565b90506128a36060830184612626565b95945050505050565b6000604051905081810181811067ffffffffffffffff821117156128cf57600080fd5b8060405250919050565b600067ffffffffffffffff8211156128f057600080fd5b601f19601f8301169050602081019050919050565b6000819050602082019050919050565b600081519050919050565b600081519050919050565b600081519050919050565b6000602082019050919050565b600082825260208201905092915050565b600082825260208201905092915050565b600082825260208201905092915050565b600061298182612994565b9050919050565b60008115159050919050565b600073ffffffffffffffffffffffffffffffffffffffff82169050919050565b6000819050919050565b82818337600083830152505050565b60005b838110156129eb5780820151818401526020810190506129d0565b838111156129fa576000848401525b50505050565b6000601f19601f8301169050919050565b612a1a81612976565b8114612a2557600080fd5b50565b612a3181612988565b8114612a3c57600080fd5b50565b612a48816129b4565b8114612a5357600080fd5b5056fea365627a7a72315820f336f612639ff6afa0d04bb1fee47814a1941125d941f5a51b098d465c1654526c6578706572696d656e74616cf564736f6c63430005100040",
  "source": "// SPDX-License-Identifier: MIT\npragma solidity >=0.4.21 <0.9.0;\npragma experimental ABIEncoderV2;\n\ncontract Election {\n    address public admin; // \n    uint256 candidateCount; // \n    uint256 voterCount; // \n    bool start; // \n    bool end; // \n\n    constructor() public {\n        // \n        admin = msg.sender;\n        candidateCount = 0;\n        voterCount = 0;\n        start = false;\n        end = false;\n    }\n\n    function getAdmin() public view returns (address) {\n        // \n        return admin;\n    }\n\n    modifier onlyAdmin() {\n        // \n        require(msg.sender == admin);\n        _;\n    }\n\n    struct Candidate {\n        uint256 candidateId; // ID\n        string header; // \n        string slogan; // \n        uint256 voteCount; // \n    }\n\n    mapping(uint256 => Candidate) public candidateDetails; // \n\n    function addCandidate(string memory _header, string memory _slogan) public onlyAdmin {\n        Candidate memory newCandidate = Candidate({\n            candidateId: candidateCount,\n            header: _header,\n            slogan: _slogan,\n            voteCount: 0\n        });\n        candidateDetails[candidateCount] = newCandidate;\n        candidateCount += 1;\n    }\n\n    struct ElectionDetails {\n        string adminName; // \n        string adminEmail; // \n        string adminTitle; // \n        string electionTitle; // \n        string organizationTitle; // \n    }\n\n    ElectionDetails electionDetails;\n\n    function setElectionDetails(\n        string memory _adminName,\n        string memory _adminEmail,\n        string memory _adminTitle,\n        string memory _electionTitle,\n        string memory _organizationTitle\n    ) public onlyAdmin {\n        electionDetails = ElectionDetails(\n            _adminName,\n            _adminEmail,\n            _adminTitle,\n            _electionTitle,\n            _organizationTitle\n        );\n        start = true;\n        end = false;\n    }\n\n    function getElectionDetails() public view returns (\n        string memory adminName,\n        string memory adminEmail,\n        string memory adminTitle,\n        string memory electionTitle,\n        string memory organizationTitle\n    ) {\n        return (\n            electionDetails.adminName,\n            electionDetails.adminEmail,\n            electionDetails.adminTitle,\n            electionDetails.electionTitle,\n            electionDetails.organizationTitle\n        );\n    }\n\n    function getTotalCandidate() public view returns (uint256) {\n        return candidateCount;\n    }\n\n    function getTotalVoter() public view returns (uint256) {\n        return voterCount;\n    }\n\n    struct Voter {\n        address voterAddress; // \n        string name; // \n        string phone; // \n        bool isVerified; // \n        bool hasVoted; // \n        bool isRegistered; // \n    }\n\n    address[] public voters; // \n    mapping(address => Voter) public voterDetails; // \n\n    function registerAsVoter(string memory _name, string memory _phone) public {\n        Voter memory newVoter = Voter({\n            voterAddress: msg.sender,\n            name: _name,\n            phone: _phone,\n            hasVoted: false,\n            isVerified: false,\n            isRegistered: true\n        });\n        voterDetails[msg.sender] = newVoter;\n        voters.push(msg.sender);\n        voterCount += 1;\n    }\n\n    function verifyVoter(bool _verifedStatus, address voterAddress) public onlyAdmin {\n        voterDetails[voterAddress].isVerified = _verifedStatus;\n    }\n\n    function vote(uint256 candidateId) public {\n        require(!voterDetails[msg.sender].hasVoted, \"Already voted\");\n        require(voterDetails[msg.sender].isVerified, \"Not verified\");\n        require(start, \"Election not started\");\n        require(!end, \"Election ended\");\n\n        candidateDetails[candidateId].voteCount += 1;\n        voterDetails[msg.sender].hasVoted = true;\n    }\n\n    function endElection() public onlyAdmin {\n        end = true;\n        start = false;\n        // \n        addElectionHistory();\n    }\n\n    function getStart() public view returns (bool) {\n        return start;\n    }\n\n    function getEnd() public view returns (bool) {\n        return end;\n    }\n\n    struct ElectionHistory {\n        string electionTitle;\n        string organizationTitle;\n        Candidate winner;\n    }\n\n    ElectionHistory[] public electionHistories;\n\n    function addElectionHistory() internal {\n        Candidate memory winner = candidateDetails[0];\n        for (uint256 i = 1; i < candidateCount; i++) {\n            if (candidateDetails[i].voteCount > winner.voteCount) {\n                winner = candidateDetails[i];\n            }\n        }\n        electionHistories.push(ElectionHistory({\n            electionTitle: electionDetails.electionTitle,\n            organizationTitle: electionDetails.organizationTitle,\n            winner: winner\n        }));\n    }\n\n    function getElectionHistory() public view returns (ElectionHistory[] memory) {\n        return electionHistories;\n    }\n\n    function resetElection() public onlyAdmin {\n        for (uint i = 0; i < candidateCount; i++) {\n            delete candidateDetails[i];\n        }\n        candidateCount = 0;\n        voterCount = 0;\n        start = false;\n        end = false;\n    }\n}\n",
  "sourcePath": "E:\\eth_voting\\Test\\contracts\\Election.sol",
  "compiler": {
    "name": "solc",
    "version": "0.5.16+commit.9c3226ce.Emscripten.clang"
  },
  "schemaVersion": "3.4.16",
  "updatedAt": "2024-06-13T12:09:02.753Z",
  "networkType": "ethereum",
  "devdoc": {
    "methods": {}
  },
  "userdoc": {
    "methods": {}
  }
}